:020000040800F2
:1000000070300020690200087102000873020008C5
:10001000750200087702000879020008000000005D
:1000200000000000000000000000000001170008B0
:100030007D02000800000000B116000851180008F9
:10004000830200088302000883020008830200087C
:10005000830200088302000883020008830200086C
:10006000830200088302000883020008830200085C
:10007000830200088302000883020008830200084C
:10008000830200088302000883020008830200083C
:10009000830200088302000883020008830200082C
:1000A000830200088302000883020008830200081C
:1000B000830200088302000883020008830200080C
:1000C00083020008830200088302000883020008FC
:1000D00083020008830200088302000883020008EC
:1000E00083020008830200088302000800F002F87F
:1000F00000F0A6F814A696E8000CB244B344DA4522
:1001000001D100F09DF8BAE80F000FA696E8300084
:10011000A5EB040504EB0607AAEB0704A7F101070A
:100120004FEA15154FEA3414A4F10104AC4201D38F
:1001300000F086F813F0010F18BFFB1A43F001031B
:1001400000F001F8DBE718471C5200003C520000A9
:10015000103A24BF78C878C1FAD8520724BF30C8F3
:1001600030C144BF04680C60704700007047000055
:100170000023002400250026103A28BF78C1FBD8B0
:10018000520728BF30C148BF0B6070476E2900F08E
:10019000B181702900F0F382662905F02980652974
:1001A00005F02680672905F02380612905F022806B
:1001B00003681B0A28BF41F08001692900F05E81B5
:1001C000642900F05B81752900F058816F2900F0E7
:1001D0008182782900F0BF82E92900F01B82E4299E
:1001E00000F01882F52900F01582EF2900F07E82D8
:1001F000F82900F0BE820368DB0928BF41F08001C6
:10020000632901F01980732901F01E80E32901F0B0
:100210002980F32901F02E80002070471FB501F0DE
:100220007FF804000020002104F0CCFF401C606037
:100230000020002104F0B0FFE0601FBD10B510BD2C
:1002400001F040F8114603B401F0DAFB03BCFFF7FC
:10025000E5FF01F0E7FB01F019F903B4FFF7EEFF4A
:1002600003BC01F061F900000948804709480047D4
:10027000FEE7FEE7FEE7FEE7FEE7FEE7FEE7FEE756
:10028000FEE7FEE704480549054A064B70470000B3
:1002900071180008ED000008702A0020703000205E
:1002A000702C0020702C00200FB41CB5084B06AA3F
:1002B0007B4469460090059800F035F9044600201B
:1002C000694600F043F920461CBC5DF814FB0000B1
:1002D00099020000032A40F2308010F0030C00F075
:1002E000158011F8013BBCF1020F624498BF11F870
:1002F00001CB00F8013B38BF11F8013BA2F1040229
:1003000098BF00F801CB38BF00F8013B11F00303A0
:1003100000F00483083AC0F0088051F8043B083A22
:1003200051F804CBA0E80810F5E7121D5CBF51F8A6
:10033000043B40F8043BAFF30080D20724BF11F820
:10034000013B11F801CB48BF11F8012B24BF00F885
:10035000013B00F801CB48BF00F8012B704702F0C9
:10036000FF0343EA032242EA024200F00BBB4FF0D4
:1003700000020429C0F0128010F0030C00F0028388
:10038000CCF1040CBCF1020F18BF00F8012BA8BF80
:1003900020F8022BA1EB0C0100F0F4BA5FEAC17C5B
:1003A00024BF00F8012B00F8012B48BF00F8012BF7
:1003B000704770477047704770B50446856900689C
:1003C000C10601D5302600E02026C00707D070BD49
:1003D000D4E9012130469047206A401C20626D1EFE
:1003E000F6D570BD70B5044685690078C00707D1A1
:1003F00070BDD4E9012120209047206A401C206272
:100400006D1EF6D570BD09684A0501D540B270472A
:10041000C905FCD500B2704709684A0501D5C0B2CC
:100420007047C905FCD580B2704770B50C460546CB
:10043000012A05D02878800600D5EA69002302E069
:10044000012305E05B1C934202D2E05C0028F9D155
:10045000A869E618C01AA861286A184428622846C4
:10046000FFF7AAFF04E0D5E9012114F8010B90473A
:10047000B442F8D32846FFF7B5FF70BD2DE9F0412F
:100480000646002410687529314616A510D0FFF7DE
:10049000BAFF002802DA404213A507E031688A0754
:1004A00001D512A502E0490704D511A5012401E0F8
:1004B000FFF7B2FF00210A2206F1240709E0B0FB92
:1004C000F2FCB0FBF2F302FB1C003030785418460B
:1004D000491C0028F3D123462A463046BDE8F041A6
:1004E00000F0BABA000000002D0000002B00000050
:1004F0002000000011680268006A530501D50870E9
:100500000AE0D30501D5088006E0130603D5C2171B
:10051000C1E9000200E008600120704701694A1C3F
:1005200002610878704700B58FB0CDE90131002134
:10053000059105497944CDE903101146684600F05C
:1005400029F90FB000BD0000E5FFFFFF0A6802F8BF
:10055000010B0A60704700002DE9FF5F15468A46CF
:100560000446DFF8AC80F8440027D8E900103E4686
:10057000CDE9001010E03AF816106A4602A800F023
:100580007DFE411C07D02178890603D5E269391820
:1005900091420DD80744761C2078800602D5E06988
:1005A000B84205DDAE42E6DB3AF816000028E2D19B
:1005B000A069C01BA0612046FFF7FEFED8E900102D
:1005C000CDE90010002017E03AF818106A4602A89A
:1005D00000F054FEB0F1FF3F81460BD000250DF135
:1005E000080B05E0D4E901211BF8050090476D1CBC
:1005F0004D45F7D308F10100B0428046E4DB206AA4
:10060000384420622046FFF7EDFEBDE8FF9F000062
:100610008E4C00002DE9F0418046D21D22F00702E9
:100620000025D2E90002F52915A614D0011E72F1A9
:10063000000106DA0023D0EB030063EB020211A6EF
:1006400008E0D8F800108B0701D50FA602E0490793
:1006500001D50EA601251146002408F1240704E067
:1006600000F0B5F930323A55641C50EA0102F7D176
:100670002B46324621464046BDE8F04100F0ECB939
:10068000000000002D0000002B00000020000000F2
:1006900030B4002100F1240408E002F00705D2087C
:1006A000303542EA4372DB086554491C52EA0305BF
:1006B000F3D10468002310A2250708D504F0200414
:1006C0000C4304D0C46901230CA2641EC46130BC75
:1006D00000F0C2B910B5044621461068FFF79CFE31
:1006E00002462046BDE810400023D1E7D21D22F08B
:1006F0000701D1E90023CBE7000000003000000033
:10070000F0B40D460188090502D5214C7C4402E075
:100710001F4C7C440E34002100F1240608E002F056
:100720000F071209E75D42EA03721B097754491C5F
:1007300052EA0307F3D102780023120704D5702D83
:1007400006D009B1022311342246F0BC00F084B96E
:1007500001231034F8E770B504460D4621461068B1
:10076000FFF75AFE024629462046BDE870400023A6
:10077000C6E7D21D22F00703D3E90023C0E70368D0
:10078000126843F0200303600823C3610023B7E726
:10079000F04A00002DE9F05F894604464FF0000A58
:1007A000DFF874B1FB44C0F820A02046E168884718
:1007B000002874D0252806D0D4E901219047206A6A
:1007C000401C2062F1E700265F462046E16888472A
:1007D0002028054607DB312D05D2781910F8200CAA
:1007E00008B10643F1E7B00701D526F00406C4F8C6
:1007F0001CA00027C4F818A02A2D09D0284604F010
:10080000C3FC38B304EB8708303DC8F8185019E032
:1008100059F8041B204604EB87029161E168884780
:10082000012F054618D1E069002820DA26F02006BD
:100830001DE0D8F8180000EB800005EB40003038D0
:10084000C8F818002046E1688847054604F09CFC7B
:100850000028EED1012F0AD02E2D08D12046E168C4
:1008600088477F1C0546022F46F02006C4DBA0699E
:10087000002803DA404246F00106A061F00701D0EB
:1008800026F010066C2D0BD0682D09D04C2D39D0D8
:100890006A2D35D0742D35D07A2D33D016E038E05E
:1008A000E1682F4620468847B842054609D16C2F9B
:1008B00026D04FF48060E16806432046884705460D
:1008C00004E06C2F1AD04FF4807006430DB3A5F1ED
:1008D0004100192802D8203546F400664A462946C8
:1008E000204626604E46FFF751FC80B101280BD010
:1008F000F61D26F0070000F1080956E74020E4E75E
:100900008020D8E70020D6E706F104094DE7284605
:1009100052E7206ABDE8F09F804A000010B5203AF7
:10092000C0F00B80B1E81850A0E81850B1E818509A
:10093000A0E81850203ABFF4F5AF5FEA027C24BF6C
:10094000B1E81850A0E8185044BF18C918C0BDE855
:1009500010405FEA827C24BF51F8043B40F8043B1E
:1009600008BF7047D20728BF31F8023B48BF11F8D3
:10097000012B28BF20F8023B48BF00F8012B70472D
:100980004FF0000200B5134694469646203922BF28
:10099000A0E80C50A0E80C50B1F12001BFF4F7AF73
:1009A000090728BFA0E80C5048BF0CC05DF804EB55
:1009B000890028BF40F8042B08BF704748BF20F8C3
:1009C000022B11F0804F18BF00F8012B704730B593
:1009D000B0F10A0271F100034FEA900E4EEA817EF7
:1009E000B0EB0E0061EB91014FEA101E4EEA017E62
:1009F00010EB0E0041EB11114FEA102E4EEA016E82
:100A000010EB0E0041EB11214FEA104E4EEA014E61
:100A100010EB0E0041EB1141401841F100014FEA8B
:100A2000D00040EA41704FEAD1014FEA810444EA24
:100A3000907410EB800544EB01046D1944EB040441
:100A4000521BA3414FF0000348BF0A3200D530BD0E
:100A5000401C41F1000130BD2DE9F0470D4699469B
:100A60009246044600F124080168880604D5E0692E
:100A700021F01001216000E00120A84201DD471BA8
:100A800000E00027A1697A1902EB0900081AA061A9
:100A90002078C00602D42046FFF78EFC002608E02E
:100AA000D4E901211AF806009047206A401C761C00
:100AB00020624E45F4DB2078C0060AD52046FFF7B9
:100AC0007BFC06E0D4E9012130209047206A401CDD
:100AD0002062381EA7F10107F4DC07E0D4E9012108
:100AE00018F805009047206A401C2062281EA5F1D6
:100AF0000105F3DC2046FFF775FC2078000602D5DF
:100B00000220BDE8F0870120FBE72DE9FF4F0C46EE
:100B10001E464FF0FF378BB0D2E90001DDF8608050
:100B20000A908A46C1F30A5505B93D460021084698
:100B30004FF00000BAF1000F00F4400005DA00EBBE
:100B400080004FF4400101EA50004FEA9059B9F19A
:100B5000010F00DDB9460A9850EA4A000ED044F66B
:100B60001050A5F2FF3545432F14B8F1000F1ED0E9
:100B70007542291E1EDDC9F100021CE0B8F1010F0B
:100B80004FF0000001D0302103E0F24305E0215492
:100B9000401CB042FBDB30460022002121540B995F
:100BA000C1F80880C1E900200FB0BDE8F08FBD1B7F
:100BB0006D1CDEE74A4600DA694206A800F0F4FB45
:100BC00006AB93E8070003AB83E8070050460A9999
:100BD00003F0FEFE8DE80700A0F500501F380090DE
:100BE0000398002D0ADD42F21F014A460844002303
:100BF00003A90390684604F067F909E0A0F50050E6
:100C00004A461F38002303A90390684604F071F98F
:100C10008DE807000004000C03D04FF0FF304108BE
:100C200000E01046B8F1000F03D0002200921546F4
:100C30001EE0751E05D4FFF7CAFE303262556D1EE8
:100C4000F9D5B3460122084302D000227F1C04E0FC
:100C50002078302801D100227F1E002A099784D0F5
:100C60001DE0112D07DAFFF7B2FE303262556D1C20
:100C700050EA0102F5D1084302D00098C8B10EE055
:100C80000021681E05E0235C625C63542254401E10
:100C9000491C8142F7DBAB46A81B401E099000208F
:100CA00004F80B000B98099AC0F80880C0E9002BE3
:100CB0007AE711264FF0000857E72DE9F04F8846F4
:100CC0000446D21D22F0070191B0D1E90001CDE91F
:100CD0000A0104F045FA02460B98C00F01D02D20FE
:100CE00007E02068810701D52B2002E0202101EADE
:100CF000C000032A099001D0072A05DB03464146BC
:100D0000204600F011FB0BE12078800601D5E06958
:100D100000E00620B8F1650F814606D0B8F1660FF5
:100D200018D0B8F1670F70D131E00020B9F1110F80
:100D3000009001DB112301E009F101030AAA01A9D6
:100D40000CA8FFF7E2FEDDE90C70002609F10105B1
:100D5000834647E001204B4600904FF000470AAA27
:100D600001A90CA8FFF7D1FEDDE90DB00C995D4695
:100D7000002610B909F101000D18B9EB050003D4E4
:100D8000C0F1FF3609F10105A5EB09002BE0B9F12F
:100D9000010F01DA4FF001090020B9F1110F0090A5
:100DA000484601DD112300E003460AAA01A90CA868
:100DB000FFF7ABFEDDE90C704D4600268346207838
:100DC00000070AD4AB4500DA5D4601A8012D04DD19
:100DD000411911F8011C302907D04F4502DA17F1EB
:100DE000040F04DA012082460FE06D1EEEE7002FAB
:100DF00002DCED1B3E4403E0781CA84200DD7D1CB4
:100E0000B81B00F1010A4FF000472078000703D417
:100E1000AA4501DB4FF0FF3A0021B7F1004F0DF179
:100E200043088DF8431024D002202B23002F01DA31
:100E30007F422D230A21021EA0F1010000DC5FB1D8
:100E400097FBF1FC97FBF1F201FB1C7C17460CF1C0
:100E5000300C08F801CDEEE7A8F1010003702188FD
:100E6000090501D5452100E06521A0F1010800F840
:100E7000011C09980FA9A1EB0807FF1D00B1012073
:100E8000411901EBEA70A1693844081A401EA061BB
:100E90002078C00602D42046FFF78EFA099828B1C0
:100EA000D4E901219047206A401C20622078C006C6
:100EB00022D52046FFF780FA1EE0002E04DBB34562
:100EC00002DD01A8805D00E03020D4E901219047D7
:100ED000206A401C2062761CAAF101005FEA000A29
:100EE0000AD100F01DFAC0680168405CD4E9012114
:100EF0009047206A401C2062281EA5F10105DCDC19
:100F000007E0D4E9012118F8010B9047206A401C42
:100F10002062381EA7F10107F3DC2046FFF762FAD2
:100F2000032011B041E600002DE9F04F04460D46C4
:100F3000D21D22F0070089B0D0E900974846394613
:100F400004F00EF90246F80F01D02D2307E02068C7
:100F5000810701D52B2302E0202101EAC0038DF88F
:100F600020300BB1012000E00020032A824601D08E
:100F7000072A04DB2946204600F0D6F93FE1207815
:100F8000800601D40D2500E0E569C7F30A560D2D52
:100F900049DA00214FEA175B08464FF00000002FA6
:100FA00000F4400007DA00EB80004FF4400100EB52
:100FB000D07001EA60008115012901DD4FF0FF3199
:100FC00000224FEA850CBCF1180F06D31346ACF192
:100FD00018004FF08052C24003E04FF4801323FA10
:100FE0000CF30CF10C0CBCF1200F04D3ACF1200C71
:100FF00009FA0CF001E007FA0CF000294FF0004864
:1010000001DD18B90FE00ED140450CD319EB0209F0
:101010005F4121B9404502D19F4329EA0209BBEB58
:10102000175F00D0761C2088000502D57B487844E5
:1010300002E07A487844193808AA302302F80A30C6
:10104000037C0AF10101002E0AF1020A53546A4698
:1010500002DC4FF0300101E04FF031014FF00108A8
:101060008DF8001002D0A6F2FF3603E059EA4701DE
:1010700000D06B4E002D02DC2178090704D54FF01B
:1010800002082E218DF80110C44600210BE0C7F3A1
:1010900003433F01C35C491C6D1E02F8083005295B
:1010A00008F1010801DA002DF1DC00210CE000EB71
:1010B0001973491C1B786D1E082902F808304FEA85
:1010C000091908F1010801DA002DF0DC21688B060E
:1010D00002D516E0A8F10108E04505DD02EB0803A2
:1010E00013F8013C302BF5D0B8F1000F09DD02EB0D
:1010F000080313F8013C2E2B03D1090701D4A8F1F2
:101100000108002D05DD3E2102F808106D1E08F1D2
:101110000108407C002E02F8080008F1010804DAFA
:101120002D20764202F8080002E02B2002F8080089
:101130000A214FF47A70864208F101080BDB96FB16
:10114000F0F3303302F8083096FBF0F308F10108B1
:1011500000FB136601E0642E0CDB642096FBF0F3C9
:10116000303302F8083096FBF0F308F1010800FB79
:10117000136601E00A2E06DB96FBF1F0303002F830
:10118000080008F1010896FBF1F001FB1060303017
:1011900002F80800A16908F1010808EB050202EB5A
:1011A0000A00081AA0612078C00602D42046FFF782
:1011B00003F9216A08AE01EB0A00206204E0D4E9D9
:1011C000012116F8010B9047BAF1010AF7D22078F5
:1011D000C00602D52046FFF7EFF86E4609E016F884
:1011E000010B3E280FD0D4E901219047206A401C12
:1011F0002062B8F10108F2D22046FFF7F3F809B0F7
:101200000320BDE8F08F206A2844206203E0D4E97F
:101210000121302090476D1EEBD3F8E71A42000001
:1012200002FCFFFF10B5436913B1AFF3008001E08A
:10123000FFF7FBF8012010BD127800F124010A70BD
:1012400000224A700122EDE711684FF0FF32E9E712
:1012500010B5436913B1AFF3008001E0FFF77CF9EB
:10126000012010BD128800F1240182840022C28472
:101270000122EDE711684FF0FF32E9E72DE9F04177
:1012800016460C46054600F043F8036893F8010142
:10129000012807D0FF2C12D8185D80B101202C70D6
:1012A000BDE8F081D3F807013246214603F2071367
:1012B000C7182846BC46BDE8F041002360474FF000
:1012C000FF30EDE7754600F0EBF8AE4605006946E5
:1012D000534620F00700854618B020B5FEF7D2FF30
:1012E000BDE820404FF000064FF000074FF0000827
:1012F0004FF0000BAC46ACE8C009ACE8C009ACE864
:10130000C009ACE8C00921F007018D467047000014
:1013100010B500F005F8001D10BD00BFA93E00008B
:1013200000487047280000202DE9F0411F46044680
:1013300003260168072A01F4006004DB08B116A542
:1013400005E016A503E008B115A500E015A521F0FC
:1013500010002060A069C01EA0610FB1401EA061F6
:101360002046FFF729F84FB1D4E9012138469047CC
:10137000206A401C2062C01C206206E0206AFAE756
:10138000D4E9012115F8010B9047761EF8D22046CA
:10139000FFF728F8BDE8F0814E414E006E616E0007
:1013A000494E4600696E66002DE9F04781461646B3
:1013B0008AB0354878440DC88DE80D00324878442D
:1013C000801C03AC0DC884E80D0041F69B30084436
:1013D000372190FBF1F290FBF1F5A5F1800501FBBF
:1013E00012041B3C02D56442012000E00020DFF81B
:1013F00098A080460027FA44AAF1BE0A0EE0E00752
:101400000AD03246684607EB470101230AEB810107
:1014100003F06FFD8DE8070064107F1C002CEED1F7
:10142000194F7F44AE3F19E0E80715D007EB0410D1
:101430000DF1180A90E80E008AE80E00C068F0422C
:1014400001D1981908903246012306A903A803F098
:1014500050FD03AB83E807006D10641C002DE3D141
:101460004FF0010332466946B8F1000F03A802D0DD
:1014700003F02AFD01E003F03CFDC9E90001C9F8D1
:1014800008200AB0BDE8F087243F000010B50446EC
:10149000AFF300802046BDE81040FEF7DEBE00003E
:1014A00000487047080000204FF0013C50F8042B22
:1014B00051F8043B9A4221D1A2EB0C03934313EA67
:1014C000CC1317D150F8042B51F8043B9A4215D194
:1014D000A2EB0C03934313EACC130BD150F8042B6B
:1014E00051F8043B9A4209D1A2EB0C03934313EA4F
:1014F000CC13DBD04FF00000704700BFD01A01BA08
:10150000B1FA81F101F0180122FA01F0CB40DBB20F
:10151000C0B2C01AC1F120012CFA01F3D11A9143D3
:1015200011EAC311E6D1704701491820ABBEFEE7AE
:10153000260002007047000042F60801C4F20101D3
:10154000086840F001000860086840F48000086006
:10155000FFE742F60000C4F201000068800700289F
:1015600001D4FFE7F5E742F64C00C4F20100006841
:101570007047000041F21801C4F20201086840F20D
:1015800004621043086040F60001C4F2010100202B
:10159000086042F20841C4F20101086840F001000D
:1015A000086042F23441C4F201010120086042F6B1
:1015B0000801C4F20101086840F00100086042F629
:1015C0003401C4F2010102200860704780B586B082
:1015D00000200290EFF305800590059818B1FFE711
:1015E0000120029017E002F04FFD019001980128C0
:1015F00010D0FFE7EFF310800390039830B9FFE7B6
:10160000EFF311800490049818B1FFE701200290D5
:10161000FFE7FFE7FFE7029806B080BD82B00190C8
:10162000009141F21C01C4F20201086840F001007F
:10163000086041F21801C4F20201086840F0040099
:10164000086040F60001C4F20101086840F00B0098
:1016500008602821C4F20001472008800198013861
:101660002C21C4F20001088000983421C4F200014A
:1016700008801821C4F20001088840F0600008804A
:101680002021C4F20001088840F0010008804FF0DA
:101690008041088840F0010008801421C4F2000154
:1016A000088840F00100088002B070470000000088
:1016B000EFF30980BFF36F8F0D4B1A6820E9F00F2D
:1016C00010602DE908404FF0800080F3118801F090
:1016D000ABFF4FF0000080F31188BDE808401968A7
:1016E0000868B0E8F00F80F30988BFF36F8F704788
:1016F0001C010020000000000000000000000000AD
:10170000074B19680868B0E8F00F80F30988BFF349
:101710006F8F4FF0000080F311884EF00D0E704770
:101720001C01002080B500F001F880BD84B00020CD
:101730000390029041F20001C4F20201086840F4F3
:1017400080300860FFE741F20000C4F20200006848
:1017500000F400300290039801300390FFE70299F3
:101760000020019039B9FFE70398B0F5A06018BFD9
:1017700001200190FFE70198C0070028E3D1FFE7AF
:1017800041F20000C4F2020000688003002803D583
:10179000FFE70120029002E000200290FFE702989C
:1017A000012851D1FFE742F20001C4F202010868AA
:1017B00040F010000860086820F007000860086822
:1017C00040F00200086041F20401C4F202010091FD
:1017D0000868086008680860086840F4806008606D
:1017E000086820F47C100860086840F4E81008607D
:1017F00041F20001C4F20201086840F08070086004
:10180000FFE741F20000C4F20200006880010028F6
:1018100001D4FFE7F5E741F20401C4F202010868D0
:1018200020F003000860086840F002000860FFE74D
:1018300041F20400C4F20200006800F00C00082825
:1018400001D0FFE7F4E700E0FFE704B070470000D5
:1018500080B54EF21000CEF20000006802F014FCD9
:10186000012803D0FFE701F099FFFFE780BD0000EA
:1018700080B541F20002C4F20202106840F001009B
:10188000106041F20401C4F2020108680023CFF69F
:10189000FF031840086010684FF6FF73CFF6F66339
:1018A00018401060106820F480201060086820F450
:1018B000FE00086041F20801C4F202014FF41F006B
:1018C0000860FFF72FFF4EF60851CEF200014FF0EF
:1018D0000060086080BD000041F21801C4F20201FE
:1018E000086844F204021043086040F60401C4F2A0
:1018F0000101B020086043F60801C4F2010141F67D
:101900004C50088043F60C01C4F20101088842F2F1
:10191000080210430880704781B08DF80300FFE78C
:1019200043F60000C4F2010000880006002801D43C
:10193000FFE7F5E79DF8030043F60401C4F2010157
:10194000088001B07047000080B582B00190FFE7C9
:101950000198007838B1FFE70198411C01910078A7
:10196000FFF7DAFFF4E702B080BD000080B582B077
:10197000019000F0FBF958B1FFE700F043F838B1EF
:10198000FFE7019800684FF0FF3100F0B3F8FFE780
:1019900002B080BD80B582B001900198006800F06F
:1019A000F7F802B080BD000080B582B00190002041
:1019B000009000F0CBF968B1FFE7002000F008F9D3
:1019C000019908600198006818B1FFE701200090B4
:1019D000FFE7FFE7009802B080BD000080B582B04D
:1019E000019000F0C3F948B1FFE700F00BF828B10F
:1019F000FFE70198006800F06BF9FFE702B080BDD7
:101A00007047000082B0EFF305800190019818B98B
:101A1000FFE70120009002E000200090FFE700981F
:101A200002B0704780B584B0FFF756FFFFF7A2FD04
:101A30006946002303934B600120086042F68170E1
:101A4000C0F6000045F23431C0F600018022029257
:101A500002F0B8FA029A039B69464B6002200860C4
:101A600042F6CD70C0F6000045F24831C0F60001E4
:101A700002F0A8FA029A039B69464B6003200860B3
:101A800043F21100C0F6000045F23E31C0F60001FD
:101A900002F098FA01F086FD039804B080BD0000C2
:101AA00080B582B002F0F0FA0146009158B1FFE72C
:101AB000009801280AD0FFE70098022807D1FFE725
:101AC0000220019012E0032001900FE0FFE740F2B6
:101AD0007000C2F200000068012803D1FFE7012076
:101AE000019002E000200190FFE7FFE7019802B0BB
:101AF00080BD000080B586B005900491059820F067
:101B000001000390059800F0010001900020029070
:101B1000FFF75CFD20B1FFE76FF00500029033E0B6
:101B2000039820B9FFE76FF0030002902BE00198C3
:101B3000A0B1FFE70398049902F0B8F901280CD08E
:101B4000FFE7049820B1FFE76FF00100029003E087
:101B50006FF002000290FFE7FFE713E0039804999B
:101B600002F0D4F801280CD0FFE7049820B1FFE779
:101B70006FF00100029003E06FF002000290FFE7B7
:101B8000FFE7FFE7FFE7FFE7029806B080BD000030
:101B900080B584B00390039820F001000190FFF716
:101BA00015FD20B1FFE76FF0050002900DE00198F0
:101BB00020B9FFE76FF00300029005E000200290DB
:101BC000019801F089FBFFE7FFE7029804B080BDB0
:101BD00080B586B0059000200490FFF7F7FC002840
:101BE00072D1FFE7059820B1FFE7059840680390A0
:101BF00002E000200390FFE79DF80C00C00718B139
:101C0000FFE70120029002E000200290FFE7039826
:101C100000F00800082856D0FFE74FF0FF30019091
:101C20000598C8B1FFE70598806840B1FFE70598BF
:101C3000C068502803D3FFE7012001900BE005980E
:101C4000806838B9FFE70598C06818B9FFE7002039
:101C50000190FFE7FFE702E000200190FFE7019815
:101C6000012812D1FFE7029838B1FFE70598816893
:101C7000042001F0C7FD049006E00598816801206A
:101C800001F0C0FD0490FFE711E0019870B9FFE793
:101C9000029828B1FFE7042001F0A0FD049004E0C1
:101CA000012001F09BFD0490FFE7FFE7FFE70498A8
:101CB00040B1FFE7029828B1FFE7049840F0010027
:101CC0000490FFE7FFE7FFE7049806B080BD00003F
:101CD00080B584B00390039820F00100029003982F
:101CE00000F00100009000200190FFF76FFC20B190
:101CF000FFE76FF00500019024E0029820B9FFE7AC
:101D00006FF0030001901CE0009858B1FFE70298C3
:101D100001F02AFF012804D0FFE76FF002000190D4
:101D2000FFE70DE00298002319461A4601F066FE0F
:101D3000012804D0FFE76FF002000190FFE7FFE702
:101D4000FFE7FFE7019804B080BD000080B582B0D6
:101D5000FFF7A6FE012803DBFFE70120019002E068
:101D600000200190FFE7019802B080BD80B582B0ED
:101D7000FFF796FE022803D1FFE70120019002E061
:101D800000200190FFE7019802B080BD80B588B0C7
:101D90000790069142F65C20C2F2000000680490B1
:101DA00040F22410C2F200000068039040F22C10B0
:101DB000C2F200000068029040F21C10C2F2000063
:101DC0000268002182F85A100068043001F04EF9D0
:101DD00008B9FFE700E0FFE70798013028BBFFE7FD
:101DE000069810B3FFE7FFE742F63421C2F2000184
:101DF00048680190019A40F21C10C2F2000003688A
:101E00009A60019A92680368DA6002680432019B62
:101E10009B685A6002680432019B9A6000684161C5
:101E2000086801300860FFE735E004980799084426
:101E30000590059840F21C11C2F200010968486043
:101E40000598049988420AD2FFE7029840F21C11D3
:101E5000C2F200010968043101F07EF91AE003982A
:101E600040F21C11C2F200010968043101F074F95A
:101E7000059842F60021C2F200010968884207D2A3
:101E8000FFE7059842F60021C2F20001086000E079
:101E9000FFE7FFE7FFE708B080BD000080B582B034
:101EA000019001F08FF942F29451C2F200010868EA
:101EB0000130086040F21C10C2F20000006898B9BE
:101EC000FFE7019840F21C11C2F20001086042F2E3
:101ED0009450C2F200000068012803D1FFE700F02F
:101EE000E5FB00E0FFE71CE042F62820C2F200001C
:101EF0000068A0B9FFE740F21C10C2F200000068C1
:101F0000C06A0199C96A884207D8FFE7019840F280
:101F10001C11C2F20001086000E0FFE700E0FFE7EB
:101F2000FFE742F2A050C2F20000016801310160F7
:101F3000006801994864FFE7FFE70198C06A42F230
:101F4000A451C2F200010968884208D9FFE701984C
:101F5000C06A42F2A451C2F200010860FFE7FFE745
:101F6000FFE70198C06A00EB800040F23411C2F232
:101F7000000101EB8000406800900098019A906099
:101F800000988068019AD06001980430009A9268A5
:101F9000506001980430009A9060019AD06A00EB7A
:101FA000800001EB800050610198C06A00EB800264
:101FB00051F82200013041F82200FFE7FFE701F06D
:101FC00019F942F62820C2F200000068D8B1FFE7F4
:101FD000FFE740F21C10C2F200000068C06A0199DD
:101FE000C96A88420CD2FFE74EF60451CEF20001D6
:101FF0004FF080500860BFF34F8FBFF36F8F00E04A
:10200000FFE7FFE700E0FFE702B080BD80B584B0E6
:1020100001F0D8F842F66020C2F20000006878BBF8
:10202000FFE742F6A410C2F20000029001F074F83B
:1020300042F6B810C2F20000039001F06DF8029968
:10204000039840F22012C2F20002116040F23011F7
:10205000C2F20001086069460020086040F2780280
:10206000C2F2000240F2C803C2F2000305201021B0
:1020700001F026FC42F66021C2F20001086000E097
:10208000FFE701F0B7F804B080BD000080B582B072
:10209000FFE742F29850C2F20000006808B3FFE781
:1020A00001F090F842F64820C2F20000C068C06813
:1020B00001900198043000F0D9FF42F29451C2F22D
:1020C000000108680138086042F29851C2F200012C
:1020D00008680138086001F08DF8019800F074F983
:1020E000D7E702B080BD000080B582B001900091BA
:1020F0000198006CB8B1FFE70199C8680A6C1044F8
:10210000C86001988168C068884204D3FFE70199DC
:102110000868C86000E0FFE70098019AD168126C77
:10212000FEF7D8F8FFE702B080BD000080B586B0AA
:10213000059004910392002002900598806B019015
:102140000598006C78B9FFE70598006848B9FFE783
:102150000598806802F0EEF80290059900208860EA
:1021600000E0FFE741E00398B8B9FFE7059A04995A
:102170005068126CFEF7AEF8059948680A6C104476
:102180004860059948688968884204D3FFE7059943
:102190000868486000E0FFE726E0059A0499D068E7
:1021A000126CFEF797F80599C8680A6C801AC86027
:1021B00005980168C068884206D2FFE705998868DB
:1021C0000A6C801AC86000E0FFE70398022809D172
:1021D000FFE7019820B1FFE701980138019000E086
:1021E000FFE700E0FFE7FFE7FFE70198013005990F
:1021F0008863029806B080BD80B590B001200F9032
:10220000002009900890FFE708980F2813DCFFE7EB
:10221000089A45F25330C0F60000815C0AA8815448
:102220000899405C08B9FFE705E0FFE7FFE7089879
:1022300001300890E8E700200E90FFE70E98002894
:102240003BDCFFE742F21950C0F600000990002085
:1022500004900790069007A806A905AA00F02AFF97
:10226000049B0998059ADDF818C0DDF81CE0694662
:10227000C1F808E0C1F804C00B600AA901F0CCFE67
:1022800001460E9A42F6F810C2F2000040F8221001
:102290000E9950F8210018B1FFE701200F9002E0DD
:1022A00000200F90FFE70F9808B9FFE705E0FFE770
:1022B000FFE70E9801300E90C0E70F9810B080BD78
:1022C00070B58AB0DDF844C0DDF840C0DDF83CC030
:1022D000DDF838C00990089107920693109828B34A
:1022E000FFE70F9810B3FFE71098059005985C2161
:1022F000FEF73DF80F98059908630599022081F8CB
:10230000590009980899079A069BDDF838C0119C76
:10231000059DEE460026CEF80C60CEF80850CEF8AB
:102320000440CEF800C000F04DF902E00020059016
:10233000FFE705980AB070BD70B58AB0DDF83CC003
:10234000DDF838C00990089107920693079880003D
:1023500000F000FD04900498A0B1FFE75C2000F0BD
:10236000F9FC0590059840B1FFE705985C21FDF761
:10237000FEFF04980599086303E0049800F04EFFFF
:10238000FFE702E000200590FFE70598C0B1FFE7F6
:102390000598002680F8596009980899079A069BC5
:1023A000DDF838C00F9C059DEE46CEF80C60CEF8E7
:1023B0000850CEF80440CEF800C000F003F9FFE763
:1023C00005980AB070BD000080B582B001900198F8
:1023D00090F8590040B9FFE70198006B00F01EFF2C
:1023E000019800F01BFF0BE0019890F859000128BC
:1023F00004D1FFE7019800F011FF00E0FFE7FFE7DD
:1024000002B080BD82B001900198406A38B1FFE708
:102410000198006B0068C0F13800009002E00020D5
:102420000090FFE7009802B07047000082B0019072
:1024300040F22010C2F2000000680068B0FA80F09C
:102440004009019908600198006848B9FFE740F227
:102450002010C2F200000068C0680068009002E02E
:1024600000200090FFE7009802B0704784B04FF45E
:102470000050009040F29450C2F2000002909DF88B
:102480000800400788B1FFE70298073002900298E1
:1024900020F007000290029A40F29451C2F200012B
:1024A0000098891A08440090FFE7029942F62C2010
:1024B000C2F200000160002141600298009A1044BD
:1024C0000190019808380190019820F007000190D0
:1024D000019A40F22810C2F20000026002685160C6
:1024E00002681160029903910199039A891A516057
:1024F0000068039908600398406842F6FC11C2F234
:10250000000108600398406842F6F411C2F200012D
:10251000086004B07047000080B582B00190FFE70A
:10252000FFF7B4FD40F23410C2F200000068022848
:102530000CD3FFE74EF60451CEF200014FF080506D
:102540000860BFF34F8FBFF36F8F00E0FFE7E7E74F
:1025500080B582B00190019868B1FFE7019800232F
:102560008360019803600198C360019819461A4678
:1025700001F044FA00E0FFE702B080BD80B584B00E
:10258000DDF818C00390029101928DF80330029893
:1025900018B9FFE70698006003E001980699086003
:1025A000FFE703980699C86302980699086406989D
:1025B000012101F0BBF99DF80300069981F84C0058
:1025C00004B080BD80B586B0DDF82CC0DDF828C031
:1025D000DDF824C0DDF820C0059004910392029339
:1025E0000A98006B03998900A522FDF7B8FE0A98A6
:1025F000006B039900EB810004380190019820F0F2
:10260000070001900498F8B1FFE700200090FFE771
:1026100000980F2813D8FFE70498009A805C0A9965
:10262000114481F8340004980099405C08B9FFE730
:1026300005E0FFE7FFE7009801300090E8E70A991E
:10264000002081F8430000E0FFE70898382803D312
:10265000FFE73720089000E0FFE708980A99C86272
:1026600008980A99C8640A98043000F06DFD0A9829
:10267000183000F069FD0A9800610898C0F1380030
:102680000A9988610A98406201980599029A00F0B7
:102690004FFC0A990860099820B1FFE70A98099948
:1026A000086000E0FFE706B080BD000080B584B0A0
:1026B00000200390FFE70398372810D8FFE703981E
:1026C00000EB800140F23410C2F2000000EB810008
:1026D00000F022FDFFE7039801300390EBE742F69C
:1026E000CC10C2F20000019000F016FD42F6E0109E
:1026F000C2F20000029000F00FFD42F61420C2F278
:10270000000000F009FD42F64820C2F2000000F08F
:1027100003FD42F63420C2F2000000F0FDFC0199F6
:10272000029840F22412C2F20002116040F22C1111
:10273000C2F20001086004B080BD000083B00290C6
:1027400042F62C20C2F200000190FFE701980068D9
:102750000299884205D2FFE7FFE7019800680190DF
:10276000F4E7019842F62C21C2F20001884201D020
:10277000FFE7FFE701980090009801994968084435
:102780000299884209D1FFE7029842680199486896
:10279000104448600198029000E0FFE70298009022
:1027A000009802994968084401990968884220D133
:1027B000FFE70198006840F22811C2F200010968A1
:1027C00088420DD0FFE70198006842680299486886
:1027D000104448600198006800680299086007E0AA
:1027E00040F22810C2F20000006802990860FFE77A
:1027F00004E00198006802990860FFE701980299D7
:10280000884204D0FFE702980199086000E0FFE7E2
:1028100003B0704780B586B005900491039202938F
:10282000002001900498059948600598006104987B
:102830000399884216D8FFE703980299401A059930
:102840008969884203D3FFE70120019009E040F243
:102850003010C2F2000000680599043100F07CFCE1
:10286000FFE717E003980299884208D2FFE704982F
:102870000299884203D3FFE70120019009E040F26A
:102880002010C2F2000000680599043100F064FCD9
:10289000FFE7FFE7019806B080BD000080B582B079
:1028A000019000F08FFC0198806B18B9FFE70120C0
:1028B000009002E000200090FFE700F09BFC0098F1
:1028C00002B080BD80B582B0019000F07BFC019821
:1028D000806B0199C96B884203D1FFE7012000900A
:1028E00002E000200090FFE700F084FC009802B0B6
:1028F00080BD000006480068006880F3088862B662
:1029000061B6BFF34F8FBFF36F8F00DF00BF0000D2
:1029100008ED00E080B584B00390029140F22010F1
:10292000C2F200000068C068C068019001980430DD
:1029300000F09CFB019890F828004007002806D57D
:10294000FFE701980399029A00F004F907E0019962
:1029500091F8280000F0FE0081F82800FFE70198B8
:10296000016A884704B080BD80B58AB00020099014
:10297000089007900690FFE742F66020C2F2000040
:10298000006806A9002201F017F9002800F09180E4
:10299000FFE70698B0F1FF3F09DCFFE706A8043027
:1029A000029002990A6848688968904700E0FFE74A
:1029B0000698002800F17C80FFE7089805900598AC
:1029C000406928B1FFE70598043000F04FFB00E0B4
:1029D000FFE704A800F0F6F80390069801380146D6
:1029E0000191082862D80199DFE801F00505323A23
:1029F0004C0505323A00059991F8280040F0010095
:102A000081F828000598079B81691944039AFFF70C
:102A100001FFD8B1FFE7059890F82800400700288B
:102A200008D5FFE70598079982691144039A00F0D9
:102A300091F807E0059991F8280000F0FE0081F870
:102A40002800FFE70598016A884700E0FFE72EE0CD
:102A5000059991F8280000F0FE0081F8280026E092
:102A6000059991F8280040F0010081F828000798A6
:102A7000059988610598039B816919441A46FFF7F7
:102A8000C9FE14E0059890F828008007002804D4B7
:102A9000FFE7059800F0C2FB07E0059991F82800D0
:102AA00000F0FE0081F82800FFE700E0FFE7FFE705
:102AB00062E70AB080BD000080B584B00390029147
:102AC00000F0AAFD684600F07DF801900098D8BBA0
:102AD000FFE7029860B9FFE703980199884207D899
:102AE000FFE701F019FE03980199FFF713FF2AE0B1
:102AF000029858B1FFE740F23010C2F200000068BF
:102B00000068B0FA80F040090290FFE742F66020CA
:102B1000C2F2000000680399019A891A029A00F033
:102B2000EDFB01F0F9FD60B9FFE74EF60451CEF27E
:102B300000014FF080500860BFF34F8FBFF36F8FDD
:102B400000E0FFE7FFE702E001F0E6FDFFE704B089
:102B500080BD000080B584B0039002910192FFE730
:102B60000398029B81691944019AFFF753FE48B10B
:102B7000FFE7039881690298084402900398016A6C
:102B80008847EDE704B080BD40F22410C2F2000097
:102B90000068006840B9FFE742F60021C2F2000178
:102BA0004FF0FF3008600CE040F22410C2F2000049
:102BB0000068C068006842F60021C2F200010860A7
:102BC000FFE7704780B582B0019001F079FA00907C
:102BD000009840F21811C2F200010968884206D23A
:102BE000FFE700F011F801990120086003E0019966
:102BF00000200860FFE7009840F21811C2F20001BF
:102C00000860009802B080BD80B582B0FFE740F256
:102C10002010C2F200000068006870B1FFE740F2C7
:102C20002010C2F200000068C0680068019001989E
:102C30004FF0FF31FFF76EFEE9E740F22012C2F2DB
:102C400000021068009040F23011C2F200010868E2
:102C500010600098086002B080BD000082B00020C3
:102C600000904FF0800080F31188BFF36F8FBFF3A7
:102C70004F8F0190FFE7009808B9FFE7FBE702B02C
:102C80007047000080B584B00390FFE701A8FFF70C
:102C9000CDFB029002980199FFF70EFFFFF764FE4B
:102CA000F4E7000080B582B0019000F08BFA019843
:102CB00090F845008DF80300FFE79DF90300012817
:102CC00016DBFFE70198406A58B1FFE7019824300E
:102CD00001F058FC18B1FFE700F07AFB00E0FFE7D5
:102CE00000E005E09DF8030001388DF80300E4E7FB
:102CF0000199FF2081F8450000F07CFA00F062FAAB
:102D0000019890F844008DF80200FFE79DF9020059
:102D1000012816DBFFE70198006980B1FFE7019801
:102D2000103001F02FFC18B1FFE700F051FB00E07C
:102D3000FFE79DF8020001388DF8020000E000E096
:102D4000E4E70199FF2081F8440000F053FA02B053
:102D500080BD000080B588B00790002003900798E0
:102D600040B3FFE7079810F1090F1FD8FFE7079856
:102D7000083007909DF81C004007A8B1FFE70798AE
:102D800000F00700C0F10800029007980299C943BB
:102D9000884205D8FFE7029907980844079002E0A7
:102DA00000200790FFE700E0FFE702E00020079027
:102DB000FFE700E0FFE700F02FFC40F22810C2F22E
:102DC0000000006818B9FFE7FFF750FB00E0FFE7DD
:102DD0009DF81F000006002800F19180FFE707988A
:102DE000002800F08A80FFE7079842F6F411C2F24B
:102DF00000010968884200F28080FFE742F62C203B
:102E0000C2F20000059000680690FFE7069841684E
:102E1000079A00209142019007D2FFE706980068C8
:102E2000002818BF01200190FFE70198C00730B1CA
:102E3000FFE706980590069800680690E6E7069872
:102E400040F22811C2F200010968884253D0FFE71E
:102E50000598006808300390069800680599086096
:102E6000069840680799401A112815D3FFE706987D
:102E7000079908440490069840680799401A0499F5
:102E800048600798069948600598006804990860AA
:102E900004980599086000E0FFE70698426842F64A
:102EA000F410C2F200000168891A0160006842F65D
:102EB000FC11C2F20001096888420BD2FFE742F61A
:102EC000F410C2F20000006842F6FC11C2F20001E8
:102ED000086000E0FFE70699486840F0004048605D
:102EE00006990020086042F60821C2F20001086835
:102EF0000130086000E0FFE700E0FFE700E0FFE7E7
:102F000001F00AFC039808B080BD000081B040F2D7
:102F10001C10C2F2000000680090009828B1FFE782
:102F20000099086D01300865FFE7009801B070470F
:102F300083B00290019100920298043802900299A5
:102F40004FF080700860029804380290019820F0D9
:102F5000010002990860029804380290029942F632
:102F60005D40C0F600000860029814380290009896
:102F700002990860029820380290029803B07047C6
:102F800080B582B00190FFE7FEF7D6FA014640F225
:102F90006C00C2F200000160006800EB80010801D3
:102FA00040F20112C0F21002A0FB0220C0EB01119E
:102FB00000EB51010A2000EBD12042F6A011C2F231
:102FC00000010860C82000F0CBF9DDE780B582B0D1
:102FD0000190FFE740F27400C2F20000016844F281
:102FE0004020C0F20F00B0FBF1F042F6A011C2F297
:102FF00000010968414348F21F52C5F2EB12A1FBE0
:1030000002214909FEF70AFBC82000F0A9F9E1E70F
:1030100080B592B01190FFE740F26800C2F2000064
:10302000026840F26C00C2F20000036840F27400D3
:10303000C2F20000006842F6A011C2F20001D1F80D
:1030400000C06946C1F804C0086045F2F421C0F62A
:1030500000010DF112000390FDF726F90398FEF729
:1030600073FC4FF4FA7000F07BF9D5E782B0019061
:103070000198006900900198416880688860019912
:10308000486889684860009840680199884205D17D
:10309000FFE7019880680099486000E0FFE7019928
:1030A00000200861009908680138086000980068ED
:1030B00002B0704783B0029001910092029942F2EF
:1030C000A870C2F200000860019942F2A850C2F252
:1030D0000000086000998020086003B0704700007D
:1030E00083B0029001910092029942F64410C2F21C
:1030F00000000860019942F60400C2F20000086076
:1031000000995020086003B07047000082B0019021
:10311000009102B07047000081B00090009901F169
:103120000800486000994FF0FF308860009901F175
:103130000800C860009901F10800086100990020AA
:10314000086001B07047000081B000900099002035
:10315000086101B07047000084B0039002910298AA
:10316000006800900098013020B9FFE703980069DB
:10317000019010E0039808300190FFE70198406843
:1031800000680099884205D8FFE7FFE7019840688A
:103190000190F3E7FFE701984068029948600298C0
:1031A0004168886001980299886002980199486096
:1031B000039802990861039908680130086004B017
:1031C0007047000081B04FF0800080F31188BFF39A
:1031D0006F8FBFF34F8F009040F20400C2F20000E7
:1031E0000168013101600068012801D1FFE7FFE7B4
:1031F00001B0704781B040F20400C2F200000168E3
:1032000001390160006830B9FFE7002000900098A4
:1032100080F31188FFE701B07047000080B584B0EB
:10322000039003980290039888B3FFE70298083848
:103230000290029801900198C1790020B0EBD11F53
:1032400023D0FFE701980068E8B9FFE701994868D3
:1032500020F00040486000F0DFF90198426842F633
:10326000F411C2F200010868104408600198FFF7E9
:1032700065FA42F60C21C2F20001086801300860CC
:1032800001F04AFA00E0FFE700E0FFE7FFE704B0E3
:1032900080BD00004EF21001CEF200010020086057
:1032A0004EF21802CEF20002106040F20000C2F2AC
:1032B0000000006844F6D352C1F26202A0FB020291
:1032C0004FF0FF3000EB92104EF21402CEF20002EB
:1032D000106007200860704780B582B001900198A7
:1032E0000090009890F8460020B9FFE70098FFF79B
:1032F00095FF00E0FFE702B080BD000080B584B01C
:1033000003900291019203980090FFF75BFF0098F1
:1033100090F94400013028B9FFE70099002081F8B6
:103320004400FFE7009890F94500013028B9FFE715
:103330000099002081F84500FFE7FFF75BFF009848
:10334000806B38B9FFE7009824300299019A00F0A9
:103350005BF800E0FFE70098FFF7A4FC04B080BD35
:1033600080B582B0019000200090019850B1FFE735
:1033700000F052F901980021FEF708FD01F0CCF9A8
:10338000009000E0FFE7009860B9FFE74EF60451B7
:10339000CEF200014FF080500860BFF34F8FBFF3B3
:1033A0006F8F00E0FFE702B080BD000081B00090A9
:1033B00042F60420C2F2000000680099086042F65C
:1033C0005C20C2F2000000680099486001B07047BC
:1033D00042F66821C2F20001012008607047000037
:1033E00080B582B001900091019840F21C11C2F2A8
:1033F000000109681831FFF7AFFE00980121FEF7C0
:10340000C5FC02B080BD000080B584B0039002917D
:103410000192FFE7039840680090009840F21C1169
:10342000C2F200010A68D061009880680A681062E0
:1034300008681830009A9268506008681830009A3E
:1034400090600398096888620399086801300860F1
:10345000FFE7019820B1FFE74FF0FF300290FFE750
:1034600002980199FEF792FC04B080BD80B588B047
:103470000790069107980590012002900798002870
:1034800000F08D80FFE70598C06C0699884203D252
:10349000FFE70698039003E00598C06C0390FFE7F0
:1034A0000598C06A0399884277D0FFE70598006DB8
:1034B000012870D1FFE70598C06A04900398059928
:1034C000C8620598C07E0006002806D4FFE703986E
:1034D000C0F138000599886100E0FFE70598406970
:1034E000049901EB810240F23411C2F2000101EBB8
:1034F000820188424DD1FFE705980430FFF7B6FD01
:1035000008B9FFE700E0FFE7FFE7FFE70598C06ABB
:1035100042F2A451C2F200010968884208D9FFE7CB
:103520000598C06A42F2A451C2F200010860FFE7A8
:10353000FFE7FFE70598C06A00EB800040F2341116
:10354000C2F2000101EB8000406801900198059AE9
:10355000906001988068059AD06005980430019ABF
:103560009268506005980430019A9060059AD06A7C
:1035700000EB800001EB800050610598C06A00EB11
:10358000800251F82200013041F82200FFE7FFE7F6
:1035900000E0FFE700E0FFE700E0FFE700E0FFE713
:1035A00008B080BD80B582B0FEF726FE009000987E
:1035B000012804D1FFE701F0CFF9009000E0FFE718
:1035C000009801281FD1FFE74FF0800080F3118899
:1035D000BFF36F8FBFF34F8F019042F60021C2F20D
:1035E00000014FF0FF30086042F62821C2F20001CE
:1035F0000120086042F65C21C2F200010020086050
:1036000000F0A0F800E0FFE745F26030C0F60000EF
:10361000006802B080BD000042F29C51C2F200017D
:10362000086801300860704780B586B042F29C504F
:10363000C2F20000006838B1FFE742F66821C2F22A
:103640000001012008607BE042F66821C2F200011F
:1036500000200860FFE740F21C10C2F20000006882
:10366000006B05904FF0A530049005980068B0F10C
:10367000A53F12D1FFE705984068B0F1A53F0CD1F6
:10368000FFE705988068B0F1A53F06D1FFE70598F0
:10369000C068B0F1A53F0CD0FFE740F21C10C2F2A9
:1036A000000001683431039100680399FFF72EFD93
:1036B000FFE7FFE7FFE742F2A450C2F20000006814
:1036C0000290FFE7029800EB800140F23410C2F252
:1036D000000050F8210020B9FFE70298013802905D
:1036E000F0E7FFE7029800EB800140F23410C2F2ED
:1036F000000000EB81000190019948684068486033
:10370000019948680831884204D1FFE70199C868E7
:103710004860FFE701984068C06840F21C11C2F29F
:1037200000010860FFE7029842F2A451C2F20001D2
:103730000860FFE740F21C10C2F200000068FFE7DB
:1037400006B080BD80B582B04EF60850CEF20000C3
:10375000006801904EF62051CEF20001086840F456
:103760007F000860086840F07F4008604EF61C51FA
:10377000CEF20001002000900860FFF78BFD00985A
:1037800040F20401C2F200010860FFF7B3F8FFF74E
:103790004BFFFFF763FA009802B080BD80B582B09E
:1037A0004FF0800080F31188BFF36F8FBFF34F8F0E
:1037B000009000F08FFC40B1FFE74EF60451CEF2CE
:1037C00000014FF08050086000E0FFE7002001900A
:1037D000019880F3118802B080BD000080B584B0EC
:1037E0008DF80F0001200190002100919DF80F201D
:1037F00000F022F802900298FEF7AAFE029804B0A8
:1038000080BD000080B586B08DF8170004910120BE
:103810000290002201929DF81710049BEC46CCF810
:103820000010114600F04CF803900398FEF790FE4C
:10383000039806B080BD000080B588B0079006915F
:103840008DF81720002004900798A0B3FFE7079990
:103850004FF0FF30B0FBF1F0069988422BD3FFE721
:1038600007980699484310F1510F24D8FFE70798AD
:1038700006994843039003985030FFF76BFA049081
:103880000498B0B1FFE7049802900298503002907B
:103890000499002081F8460007980699029A9DF83D
:1038A0001730DDF810C0EE46CEF800C0FEF766FE19
:1038B00000E0FFE700E0FFE7049808B080BD0000EB
:1038C00080B588B084460A98CDF81CC00691059250
:1038D00004938DF80F0000200290079810B3FFE7C3
:1038E0000498F8B1FFE7059818B1FFE70698C8B14A
:1038F000FFE7059818B9FFE7069898B9FFE704981D
:1039000002900299012081F8460007980699059ACD
:103910009DF80F30DDF808C0EE46CEF800C0FEF787
:103920002DFE00E0FFE7029808B080BD80B584B0AE
:1039300003900291012001900398009000980028C4
:1039400056D0FFE70098C06B002851D0FFE70098E1
:10395000C26B016C4FF0FF30B0FBF2F0884247D3EE
:10396000FFE7FFF72FFC00990B68C86B0A6C00FBA0
:1039700002308860009900208863009908684860D8
:1039800000990B68C86B0A6C013800FB0230C860F4
:103990000099FF2081F84400009981F845000298C1
:1039A000D0B9FFE700980069A0B1FFE70098103098
:1039B00000F0E8FD60B1FFE74EF60451CEF20001E1
:1039C0004FF080500860BFF34F8FBFF36F8F00E060
:1039D000FFE700E0FFE708E000981030FFF79CFBEE
:1039E00000982430FFF798FBFFE7FFF703FC02E0A5
:1039F00000200190FFE7019804B080BD80B58AB037
:103A00000890079106920593002004900898009072
:103A1000FFE7FFF7D7FB0098806B0099C96B8842DE
:103A200004D3FFE70598022834D1FFE700980799EF
:103A3000059AFEF77BFB03900098406AA0B1FFE770
:103A40000098243000F09EFD60B1FFE74EF604516F
:103A5000CEF200014FF080500860BFF34F8FBFF3EC
:103A60006F8F00E0FFE710E0039860B1FFE74EF6CC
:103A70000451CEF200014FF080500860BFF34F8F29
:103A8000BFF36F8F00E0FFE7FFE7FFF7B3FB012015
:103A9000099065E0069828B9FFE7FFF7ABFB002027
:103AA00009905DE0049830B9FFE701A8FFF77EFCBC
:103AB0000120049000E0FFE7FFE7FFE7FFF79AFB34
:103AC000FFF7AAFDFFF77EFB009890F94400013054
:103AD00028B9FFE70099002081F84400FFE700982B
:103AE00090F94500013028B9FFE70099002081F8DE
:103AF0004500FFE7FFF77EFB01A806A900F000FAEA
:103B000028BBFFE70098FEF7DDFEC8B1FFE700988D
:103B100010300699FFF764FC0098FFF7C3F800F037
:103B2000FBFD60B9FFE74EF60451CEF200014FF005
:103B300080500860BFF34F8FBFF36F8FFFE705E042
:103B40000098FFF7AFF800F0E7FDFFE707E0009807
:103B5000FFF7A8F800F0E0FD0020099000E058E72A
:103B600009980AB080BD000080B584B00390039826
:103B7000019001988068009000F07CFA014600985E
:103B8000884213D1FFE70199C8680138C8600198DD
:103B9000C06838B9FFE70198002319461A46FFF7B5
:103BA0002DFF00E0FFE70120029002E000200290DC
:103BB000FFE7029804B080BD80B58AB008900791F5
:103BC00006920020059008980290FFE7FFF7FAFAA6
:103BD0000298806B0190019830B3FFE70298079933
:103BE000FEF782FA01980138029988630298006909
:103BF000A0B1FFE70298103000F0C4FC60B1FFE70D
:103C00004EF60451CEF200014FF080500860BFF331
:103C10004F8FBFF36F8F00E0FFE700E0FFE7FFF794
:103C2000E9FA012009906DE0069828B9FFE7FFF74F
:103C3000E1FA0020099065E0059830B9FFE703A894
:103C4000FFF7B4FB0120059000E0FFE7FFE7FFE787
:103C5000FFF7D0FAFFF7E0FCFFF7B4FA029890F90B
:103C60004400013028B9FFE70299002081F84400A0
:103C7000FFE7029890F94500013028B9FFE7029963
:103C8000002081F84500FFE7FFF7B4FA03A806A972
:103C900000F036F930BBFFE70298FEF7FFFDD0B128
:103CA000FFE7029824300699FFF79AFB0298FEF787
:103CB000F9FF00F031FD60B9FFE74EF60451CEF296
:103CC00000014FF080500860BFF34F8FBFF36F8F3C
:103CD00000E0FFE705E00298FEF7E4FF00F01CFDBE
:103CE000FFE70EE00298FEF7DDFF00F015FD0298F9
:103CF000FEF7D4FD18B1FFE70020099002E0FFE7CE
:103D0000FFE763E709980AB080BD000080B58AB07C
:103D10000890079100200690089903910290FFE710
:103D2000FFF750FA0398806B0190019860B3FFE7AA
:103D300001980138039988630398006828B9FFE760
:103D4000FFF7E4F80399886000E0FFE70398006953
:103D5000A0B1FFE70398103000F014FC60B1FFE75A
:103D60004EF60451CEF200014FF080500860BFF3D0
:103D70004F8FBFF36F8F00E0FFE700E0FFE7FFF733
:103D800039FA012009908DE0079828B9FFE7FFF77D
:103D900031FA0020099085E0069830B9FFE704A8C1
:103DA000FFF704FB0120069000E0FFE7FFE7FFE7D5
:103DB000FFF720FAFFF730FCFFF704FA039890F9B9
:103DC0004400013028B9FFE70399002081F844003E
:103DD000FFE7039890F94500013028B9FFE7039900
:103DE000002081F84500FFE7FFF704FA04A807A9BF
:103DF00000F086F8A8BBFFE70398FEF74FFD48B335
:103E0000FFE70398006850B9FFE7FFF7DBF9039875
:103E1000806800F009FB0290FFF7ECF900E0FFE793
:103E2000039824300799FFF7DBFA0398FEF73AFF6F
:103E300000F072FC60B9FFE74EF60451CEF20001CB
:103E40004FF080500860BFF34F8FBFF36F8F00E0DB
:103E5000FFE705E00398FEF725FF00F05DFCFFE7B4
:103E60001FE00398FEF71EFF00F056FC0398FEF7D4
:103E700015FDA0B1FFE7029870B1FFE7FFF7A2F9C7
:103E80000398FEF7BFFA0090039880680099FFF747
:103E9000EDFAFFF7AFF9FFE70020099002E0FFE736
:103EA000FFE73DE709980AB080BD000080B586B005
:103EB000059004910598029002988068019000F0A6
:103EC000D9F801460198884207D1FFE70299C868EE
:103ED0000130C860012003900EE002980499FFF7BA
:103EE00015FF0390039828B1FFE70299C8680130D5
:103EF000C86000E0FFE7FFE7039806B080BD000060
:103F000080B586B005900491FFF75CF942F65C201D
:103F1000C2F2000000680290029805994968401AB0
:103F2000019040F21C10C2F20000006890F85A00A4
:103F300058B1FFE740F21C10C2F2000001680020F7
:103F400081F85A000120039037E00498006801309E
:103F500018B9FFE7002003902EE042F60420C2F2D9
:103F6000000000680599096888420CD0FFE70298B4
:103F700005994968884206D3FFE701200390049918
:103F80000020086017E001980499096888420BD264
:103F9000FFE7019A04990868801A08600598FFF7FE
:103FA00005FA0020039005E0049900200860012034
:103FB0000390FFE7FFE7FFE7FFE7FFF71BF9039831
:103FC00006B080BD10B588B0DDF82CC0DDF828C083
:103FD000079006910592049307980699059A049B09
:103FE000DDF828C00B9CEE46CEF80440CEF800C0A9
:103FF000FEF7A2F90390039830B1FFE70398FDF7AD
:104000004DFF0120029003E04FF0FF300290FFE7E8
:10401000029808B010BD000070B58AB0DDF840C04D
:10402000DDF83CC0DDF838C009900891079206938E
:104030000020059009980899079A069BDDF838C07A
:104040000F9C109DEE4605AECEF80C60CEF80850E1
:10405000CEF80440CEF800C0FEF732F90490049880
:1040600020B1FFE70498FDF719FF00E0FFE705988E
:104070000AB070BD81B040F21C10C2F200000068AE
:104080000090009801B0704781B042F62820C2F23B
:104090000000006818B9FFE7012000900DE042F22F
:1040A0009C50C2F20000006818B9FFE7022000909F
:1040B00002E000200090FFE7FFE7009801B07047A2
:1040C00081B042F65C20C2F20000006800900098C7
:1040D00001B0704780B588B00020059042F29C5036
:1040E000C2F200000068002840F01881FFE742F6A5
:1040F0005C21C2F200010868013004900498086055
:104100000498D0B9FFE7FFE740F22412C2F20002A0
:104110001068039040F22C11C2F200010868106090
:104120000398086042F60421C2F2000108680130D9
:104130000860FEF729FDFFE700E0FFE7049842F67C
:104140000021C2F2000109688842C0F0C680FFE782
:10415000FFE740F22410C2F200000068006840B996
:10416000FFE742F60021C2F200014FF0FF30086085
:10417000B2E040F22410C2F200000068C068C068DB
:10418000079007984068069004980699884207D2DD
:10419000FFE7069842F60021C2F2000108609BE0AA
:1041A000FFE7FFE707984069029007988168C068B9
:1041B000886007998868C9684860029840680799CC
:1041C0000431884205D1FFE70798C068029948602A
:1041D000FFE70799002048610299086801380860E4
:1041E000FFE70798806A08B3FFE7FFE70798806A50
:1041F00001900798C169006A88600799C869096ACF
:1042000048600198406807991831884205D1FFE756
:104210000798006A01994860FFE7079900208862C3
:104220000199086801380860FFE700E0FFE7FFE751
:10423000FFE70798C06A42F2A451C2F20001096880
:10424000884208D9FFE70798C06A42F2A451C2F237
:1042500000010860FFE7FFE7FFE70798C06A00EB8F
:10426000800040F23411C2F2000101EB800040688E
:1042700000900098079A906000988068079AD06034
:1042800007980430009A9268506007980430009AAA
:104290009060079AD06A00EB800001EB80005061CB
:1042A0000798C06A00EB800251F82200013041F803
:1042B0002200FFE7FFE70798C06A40F21C11C2F234
:1042C00000010968C96A884203D9FFE70120059007
:1042D00000E0FFE7FFE73CE7FFE740F21C10C2F217
:1042E00000000068C06A00EB800140F23410C2F2A6
:1042F000000050F82100022803D3FFE701200590B9
:1043000000E0FFE742F66820C2F20000006818B142
:10431000FFE70120059000E0FFE707E042F61021EB
:10432000C2F20001086801300860FFE7059808B094
:1043300080BD000080B584B00390039802900020F7
:104340000190039800286AD0FFE70299086D0138B0
:1043500008650299C86AC96C88425ED0FFE7029876
:10436000006D002857D1FFE702980430FEF77EFE6B
:1043700008B9FFE700E0FFE70299C86CC86202993C
:10438000C86AC0F138008861FFE7FFE70298C06A99
:1043900042F2A451C2F200010968884208D9FFE73D
:1043A0000298C06A42F2A451C2F200010860FFE71D
:1043B000FFE7FFE70298C06A00EB800040F234118B
:1043C000C2F2000101EB8000406800900098029A60
:1043D000906000988068029AD06002980430009A39
:1043E0009268506002980430009A9060029AD06AF5
:1043F00000EB800001EB800050610298C06A00EB86
:10440000800251F82200013041F82200FFE7FFE767
:104410000120019000E0FFE700E0FFE700E0FFE798
:10442000019804B080BD000080B584B0039003986B
:104430000290002001900398002800F09F80FFE781
:104440000298C06A40F21C11C2F200010968C96AF0
:10445000884280F08280FFE70298C07E0006002834
:104460000BD4FFE740F21C10C2F200000068C06AE3
:10447000C0F138000299886100E0FFE702994869BD
:10448000C96A01EB810240F23411C2F2000101EB72
:104490008201884255D1FFE702980430FEF7E6FD1D
:1044A00008B9FFE700E0FFE740F21C10C2F200008D
:1044B0000068C06A0299C862FFE7FFE70298C06A15
:1044C00042F2A451C2F200010968884208D9FFE70C
:1044D0000298C06A42F2A451C2F200010860FFE7EC
:1044E000FFE7FFE70298C06A00EB800040F234115A
:1044F000C2F2000101EB8000406800900098029A2F
:10450000906000988068029AD06002980430009A07
:104510009268506002980430009A9060029AD06AC3
:1045200000EB800001EB800050610298C06A00EB54
:10453000800251F82200013041F82200FFE7FFE736
:1045400008E040F21C10C2F200000068C06A029944
:10455000C862FFE7012001900FE00298C06C40F2B2
:104560001C11C2F200010968C96A884203D2FFE740
:104570000120019000E0FFE7FFE700E0FFE701987E
:1045800004B080BD87B006900698C068C0680590EA
:10459000FFE70598806A03900598C169006A886002
:1045A0000599C869096A48600398406805991831F7
:1045B000884205D1FFE70598006A03994860FFE744
:1045C0000599002088620399086801380860FFE7B0
:1045D00042F29C50C2F200000068002865D1FFE75B
:1045E000FFE705984069029005988168C068886077
:1045F00005998868C968486002984068059904313F
:10460000884205D1FFE70598C06802994860FFE736
:104610000599002048610299086801380860FFE7A1
:10462000FFE7FFE70598C06A42F2A451C2F2000119
:104630000968884208D9FFE70598C06A42F2A45188
:10464000C2F200010860FFE7FFE7FFE70598C06AD4
:1046500000EB800040F23411C2F2000101EB800057
:10466000406801900198059A906001988068059AC9
:10467000D06005980430019A926850600598043023
:10468000019A9060059AD06A00EB800001EB8000EF
:1046900050610598C06A00EB800251F82200013099
:1046A00041F82200FFE7FFE71DE0FFE742F6142193
:1046B000C2F20001486800900098059AD061009805
:1046C0008068059A106205981830009A92685060C8
:1046D00005981830009A906005988162086801304A
:1046E0000860FFE7FFE70598C06A40F21C11C2F2BC
:1046F00000010968C96A884208D9FFE701200490CF
:1047000042F66821C2F20001086002E00020049035
:10471000FFE7049807B0704780B588B0002000908C
:1047200007900690FEF74EFD0098059042F29C50CF
:10473000C2F200000168013901600068002840F001
:104740000481FFE742F29450C2F2000000680028A2
:1047500000F0FA80FFE7FFE742F61420C2F2000003
:104760000068002800F0A280FFE742F61420C2F2A1
:104770000000C068C0680790FFE70798806A04904F
:104780000798C169006A88600799C869096A486022
:104790000498406807991831884205D1FFE70798C7
:1047A000006A04994860FFE707990020886204992D
:1047B000086801380860FFE7FFE707984069039041
:1047C00007988168C068886007998868C9684860E8
:1047D0000398406807990431884205D1FFE707989C
:1047E000C06803994860FFE7079900204861039972
:1047F000086801380860FFE7FFE7FFE70798C06A2D
:1048000042F2A451C2F200010968884208D9FFE7C8
:104810000798C06A42F2A451C2F200010860FFE7A3
:10482000FFE7FFE70798C06A00EB800040F2341111
:10483000C2F2000101EB8000406802900298079AE2
:10484000906002988068079AD06007980430029AB6
:104850009268506007980430029A9060079AD06A74
:1048600000EB800001EB800050610798C06A00EB0C
:10487000800251F82200013041F82200FFE7FFE7F3
:104880000798C06A40F21C11C2F200010968C96AA7
:10489000884209D9FFE7059A42F66821C2F2000171
:1048A000012041F8220000E0FFE755E7079818B122
:1048B000FFE7FEF769F9FFE742F61020C2F20000B9
:1048C000006801900198F0B1FFE7FFE7FFF702FCF5
:1048D00048B1FFE7059A42F66821C2F200010120C3
:1048E00041F8220000E0FFE7019801380190FFE75E
:1048F00001980028EAD1FFE742F61021C2F2000138
:104900000020086000E0FFE7059942F66820C2F247
:10491000000050F82100A8B1FFE701200690FFE752
:1049200040F21C10C2F2000000684EF60451CEF2B4
:1049300000014FF080500860BFF34F8FBFF36F8FBF
:10494000FFE700E0FFE7FFE700E0FFE7FEF752FCCC
:10495000069808B080BD000080B588B000200790A0
:10496000FDF754FB42F66020C2F20000006858B325
:10497000FFE7002003900690059006A805A904AA69
:10498000FEF7AEFB039B049A0598DDF818C0694654
:10499000C1F808C048602820086042F68540C0F68B
:1049A000000045F25831C0F60001FFF735FB014623
:1049B00042F66420C2F200000160006818B1FFE70F
:1049C00001200790FFE700E0FFE7079808B080BDEF
:1049D0005FEA400C08BF91F0000F4FEA8C234FEACA
:1049E000C12243EA51514FEA1C5018BF00F5F04074
:1049F0004FEA300018BF41F000415FEA6C5C00F004
:104A00002980BCF1FF3F08BF40F080407047130C85
:104A100006BF12044FF0100C4FF0000C130E04BF31
:104A200012020CF1080C130F04BF12010CF1040C5C
:104A3000930F04BF92000CF1020CD30F04BF52007D
:104A40000CF1010C11464FF00002A0F11F00A0EB89
:104A50000C00704711F0004F08BF704731F0004163
:104A60003FF4D5AF0B0C06BF09044FF0100C4FF00C
:104A7000000C0B0E04BF09020CF1080C0B0F04BF55
:104A800009010CF1040C8B0F04BF89000CF1020C1E
:104A9000CB0F04BF49000CF1010CCCF1200322FA2A
:104AA00003F341EA030102FA0CF2A0EB0C0000F15F
:104AB0000100704723F07F4720F07F4C80EA03001D
:104AC00000F00040ACEB070303F57C5303F1FF0358
:104AD0002DE9804909B44FEA144324EA03484FEA18
:104AE000154B25EA0B4E0FF2042606EB13273E78F2
:104AF00003FB0667C7F5000707FB06F64FEAD64635
:104B000006F102064FEA543707FB066CCCF1005C55
:104B10004FEA1C472CEA074C0CFB06F507FB06F492
:104B200004EB15464FEA961649085FEA320234BF95
:104B300000204FF000404FEAD13706FB07FC4FEA58
:104B40001C4C0CFB0BF7D21B03FB0CF761EB0701B2
:104B50000CFB0EF7B0EB074072EB17420CFB08F7AB
:104B600034BFA2EB0742B2EB074261EB17414FEAB9
:104B70000C444FEA910706FB07FC4FEA1C4C0CFB68
:104B80000BF7B0EBC74072EB573203FB0CF734BFA7
:104B9000A2EBC742B2EBC74261EB57310CFB0EF7F9
:104BA000B0EBC70072EB57720CFB08F734BFA2EBF7
:104BB000C702B2EBC70261EB57714FEA816141EA6C
:104BC00092114FEA826242EA90124FEA806004EB4F
:104BD000CC04039F4FEAD13706FB07FC4FEA1C4C7D
:104BE0000CFB0BF7D21B03FB0CF761EB07010CFB73
:104BF0000EF7B0EB074072EB17420CFB08F734BF1F
:104C0000A2EB0742B2EB074261EB17414FEA8C552A
:104C100004EB9C244FEA910706FB07FC4FEA1C4C6F
:104C20000CFB0BF7B0EBC74072EB573203FB0CF7F2
:104C300034BFA2EBC742B2EBC74261EB57310CFB6A
:104C40000EF7B0EBC70072EB57720CFB08F734BFDE
:104C5000A2EBC702B2EBC70261EB57714FEA816169
:104C600041EA92114FEA826242EA90124FEA806072
:104C700015EB4C2544F100044FEAD13706FB07FC45
:104C80004FEA1C4C0CFB0BF7D21B03FB0CF761EB40
:104C900007010CFB0EF7B0EB074072EB17420CFB61
:104CA00008F734BFA2EB0742B2EB074261EB1741B2
:104CB0004FEA813141EA92414FEA823242EA904220
:104CC0004FEA80304FEA0C7615EB1C1544F10004D6
:104CD00048EA03434EEA0B484FF0000EB2EB080CD3
:104CE00071EB030724BF624639464EEB0E0E4FF0C0
:104CF000000B0018524149414BEB0B0BB2EB080C77
:104D000071EB03077BF1000B24BF624639464EEB83
:104D10000E0E4FF0000B0018524149414BEB0B0BAC
:104D2000B2EB080C71EB03077BF1000B24BF62466A
:104D300039464EEB0E0E51EA020718BF46F0010647
:104D400016EB0E7655F1000254F1000103D5BDE8D3
:104D50008901BDE80088BDE88901BDE80048B619B1
:104D6000524141EB0101A3F10103704780807F7E36
:104D70007D7C7B7A797877767675747372717170D1
:104D80006F6E6E6D6C6C6B6A6A6968686766666583
:104D90006464636362616160605F5F5E5E5D5D5C11
:104DA0005C5B5B5A5A595958585757565655555582
:104DB0005454535352525251515050504F4F4F4EE2
:104DC0004E4D4D4D4C4C4C4B4B4B4A4A4A49494930
:104DD0004848484747474746464645454544444472
:104DE0004443434343424242424141419C46002B9B
:104DF00030D477002BD04FEA37071CB503B44FF0FF
:104E000010004FF01001BAF1000F06D0BCF1000FF6
:104E1000DCBF40F0080040F008014FF000000FBC7C
:104E2000BDE810400BF1010BBBF1010F08BF5FEAB9
:104E3000170722BF12F1010211F101014FF00041E9
:104E400043F1000300F0004043EA00007047F9D34B
:104E50005708D0E746EA06464FEA164613F1400FD8
:104E60001FDD13F1200FDFBF16430A460021203358
:104E70005B42BED0C3F1200746EA06464FEA16461B
:104E800002FA07F746EA070622FA03F2C3F12007FF
:104E900001FA07F742EA070221FA03F14FF0000393
:104EA000A7E746EA020646EA06464FEA164646EAFB
:104EB0000106BCBF46EA0646360C4FF000034FF031
:104EC00000024FF0000194E72DE9804C70B49A463F
:104ED000934691E8380007C831EA400C48BF34EAED
:104EE000430C03D5FFF7E6FDFFF780FFF0BCBDE8FC
:104EF000008C2DE9804C70B49A46934691E83800B6
:104F000007C810F0804F08BF13F0804F03D100F0A6
:104F100005F8FFF76BFFF0BCBDE8008C20F07F4781
:104F200023F07F4C80EA030000F0004007EB0C0305
:104F3000A3F57C53A3F1FE0392F0000F00F0B380C1
:104F400095F0000F00F077802DE901494FEA1140FC
:104F500021EA00484FEA144624EA064700FB06FC13
:104F600008FB06F607FB08F818EB06484CEB164C56
:104F700000FB07F718EB07484CEB17404FEA124BC2
:104F800022EA0B4E4FEA154625EA06470BFB06FCC4
:104F90000EFB06F607FB0EFE1EEB064E4CEB164C08
:104FA0000BFB07F71EEB074E4CEB174B18EB0B08F0
:104FB00040F1000018EB0E0B58EB000840F1000028
:104FC0008F1A4FF000014FF000063CBFC943661B2B
:104FD00014BFB5EB040C00213CBFC943F61B4FEADC
:104FE000174427EA04454FEA1C472CEA074C04FB08
:104FF000076205FB07F70CFB05F616EB074642EBCD
:10500000174204FB0CFC16EB0C4642EB1C421BEB5C
:10501000060658EB020241414EEA8E0E46EA9E0613
:1050200001D5BDE80189B619524141EB0101A3F157
:105030000103BDE801894FEA144524EA05464FEA19
:10504000114721EA074C05FB07F406FB07F70CFBA9
:1050500006F111EB074144EB174405FB0CFC11EB87
:105060000C4144EB1C444FEA124722EA074C05FB73
:1050700007F206FB07F70CFB06F616EB074642EBBA
:10508000174205FB0CFC16EB0C4642EB1C456A185C
:1050900054F1000148BF7047B619524141EB01017C
:1050A000A3F10103704795F0000F37D04FEA11428A
:1050B00021EA02464FEA144724EA074C02FB07F1B3
:1050C00006FB07F70CFB06F414EB074441EB174112
:1050D00002FB0CFC14EB0C4441EB1C414FEA15475E
:1050E00025EA074C02FB07F506FB07F70CFB06F663
:1050F00016EB074645EB174502FB0CFC16EB0C467E
:1051000045EB1C42121951F1000148BF7047B61916
:10511000524141EB0101A3F1010370474FEA1445ED
:1051200024EA05464FEA114721EA074C05FB07F13F
:1051300006FB07F70CFB06F212EB074241EB1741A7
:1051400005FB0CFC12EB0C4251EB1C414FF000062E
:1051500048BF7047921841EB0101A3F1010370476A
:10516000490050EAC12018BF04204A0D18BF40F082
:10517000010040F2FF72B2EB515F08BF40F0020045
:10518000012808BF0520704730380A2801D20120C5
:10519000704700207047000010B500290AD0087839
:1051A000002807D005487844FCF77EF9002801D094
:1051B000002010BD0248784410BD0000DE01000050
:1051C000D601000010B500290AD00878002807D0C1
:1051D00005487844FCF768F9002801D0002010BD8C
:1051E0000248784410BD0000CE010000C601000056
:1051F000FBF763BDFBF798BE000000000000000055
:1052000030313233343536373839414243444546FC
:1052100040305800303132333435363738396162F6
:1052200063646566403078000400000800000000F8
:1052300000000002000100001030313233343536F6
:1052400037383961626364656678700030313233B3
:1052500034353637383941424344454658500000CA
:1052600002400000000000A0000000000540000017
:10527000000000C8000000000C4000000000409C3E
:1052800000000000194000000020BCBE000000002B
:1052900034400000BFC91B8E00000004B540000070
:1052A000504BCFD06607E2CF010000006C410000F8
:1052B0003E8251AADFEEA73401000000D94200006F
:1052C000DCB5A0E23A301F97FFFFFFFFB4450000B6
:1052D000FD25A0C8E9A3C14FFFFFFFFFFF3F00006E
:1052E0000000008000000000FF3F00000000008080
:1052F00000000000414443313A2025752C204144F0
:1053000043323A2025752C2054616E20736F205053
:10531000574D3A20257520487A2C20446F20726F13
:105320006E672078756E672050574D3A202575209E
:1053300025250A00526561642041444332005541ED
:1053400052542053656E640050574D20557064616F
:1053500074650049444C4500546D722053766300D7
:1053600037000000B05400080000002008000000D2
:1053700050010008B8540008080000206830000000
:10538000700100081C00000043000000F8FFFFFF50
:105390000C0000000E0000000F0000002E000000B6
:1053A0001001000043000000F8FFFFFF00404040F4
:1053B00040404040404041414141414040404040E8
:1053C0004040404040404040404040404005020294
:1053D0000202020202020202020202020220202053
:1053E00020202020202020020202020202029090AF
:1053F00090909090101010101010101010101010AD
:105400001010101010101010020202020202888800
:10541000888888880808080808080808080808080C
:1054200008080808080808080202020240000000F4
:10543000000000000000000000000000000000006C
:10544000000000000000000000000000000000005C
:10545000000000000000000000000000000000004C
:10546000000000000000000000000000000000003C
:10547000000000000000000000000000000000002C
:10548000000000000000000000000000000000001C
:10549000000000000000000000000000000000000C
:1054A00000000000000000000000000000000000FC
:0854B00000A24A04AAAAAAAA5C
:04000005080000ED02
:00000001FF
